{
  "_format": "hh-sol-artifact-1",
  "contractName": "TheGame",
  "sourceName": "contracts/TheGame.sol",
  "abi": [
    {
      "inputs": [],
      "stateMutability": "nonpayable",
      "type": "constructor"
    },
    {
      "anonymous": false,
      "inputs": [
        {
          "indexed": false,
          "internalType": "address",
          "name": "loser",
          "type": "address"
        }
      ],
      "name": "GameLost",
      "type": "event"
    },
    {
      "anonymous": false,
      "inputs": [
        {
          "indexed": true,
          "internalType": "address",
          "name": "previousOwner",
          "type": "address"
        },
        {
          "indexed": true,
          "internalType": "address",
          "name": "newOwner",
          "type": "address"
        }
      ],
      "name": "OwnershipTransferred",
      "type": "event"
    },
    {
      "inputs": [],
      "name": "lostGame",
      "outputs": [],
      "stateMutability": "nonpayable",
      "type": "function"
    },
    {
      "inputs": [],
      "name": "owner",
      "outputs": [
        {
          "internalType": "address",
          "name": "",
          "type": "address"
        }
      ],
      "stateMutability": "view",
      "type": "function"
    },
    {
      "inputs": [],
      "name": "renounceOwnership",
      "outputs": [],
      "stateMutability": "nonpayable",
      "type": "function"
    },
    {
      "inputs": [
        {
          "internalType": "address",
          "name": "newOwner",
          "type": "address"
        }
      ],
      "name": "transferOwnership",
      "outputs": [],
      "stateMutability": "nonpayable",
      "type": "function"
    },
    {
      "inputs": [
        {
          "internalType": "uint256",
          "name": "_price",
          "type": "uint256"
        }
      ],
      "name": "updateEntryFee",
      "outputs": [],
      "stateMutability": "nonpayable",
      "type": "function"
    }
  ],
  "bytecode": "0x608060405266038d7ea4c6800060015534801561001b57600080fd5b5061003861002d61003d60201b60201c565b61004560201b60201c565b610109565b600033905090565b60008060009054906101000a900473ffffffffffffffffffffffffffffffffffffffff169050816000806101000a81548173ffffffffffffffffffffffffffffffffffffffff021916908373ffffffffffffffffffffffffffffffffffffffff1602179055508173ffffffffffffffffffffffffffffffffffffffff168173ffffffffffffffffffffffffffffffffffffffff167f8be0079c531659141344cd1fd0a4f28419497f9722a3daafe3b4186f6b6457e060405160405180910390a35050565b610836806101186000396000f3fe608060405234801561001057600080fd5b50600436106100575760003560e01c80635a97c5301461005c578063715018a6146100665780638da5cb5b14610070578063aa1826261461008e578063f2fde38b146100aa575b600080fd5b6100646100c6565b005b61006e6100ff565b005b610078610187565b6040516100859190610600565b60405180910390f35b6100a860048036038101906100a3919061053a565b6101b0565b005b6100c460048036038101906100bf9190610511565b61025b565b005b7fe52eca3d39fb231ad76fbb2384560be97f13bf0d9b9739a6d31c93acd38c4d94336040516100f59190610600565b60405180910390a1565b610107610353565b73ffffffffffffffffffffffffffffffffffffffff16610125610187565b73ffffffffffffffffffffffffffffffffffffffff161461017b576040517f08c379a000000000000000000000000000000000000000000000000000000000815260040161017290610679565b60405180910390fd5b610185600061035b565b565b60008060009054906101000a900473ffffffffffffffffffffffffffffffffffffffff16905090565b6101b8610353565b73ffffffffffffffffffffffffffffffffffffffff166101d6610187565b73ffffffffffffffffffffffffffffffffffffffff161461022c576040517f08c379a000000000000000000000000000000000000000000000000000000000815260040161022390610679565b60405180910390fd5b6102516040518060600160405280602581526020016107dc602591396001548361041f565b8060018190555050565b610263610353565b73ffffffffffffffffffffffffffffffffffffffff16610281610187565b73ffffffffffffffffffffffffffffffffffffffff16146102d7576040517f08c379a00000000000000000000000000000000000000000000000000000000081526004016102ce90610679565b60405180910390fd5b600073ffffffffffffffffffffffffffffffffffffffff168173ffffffffffffffffffffffffffffffffffffffff161415610347576040517f08c379a000000000000000000000000000000000000000000000000000000000815260040161033e90610659565b60405180910390fd5b6103508161035b565b50565b600033905090565b60008060009054906101000a900473ffffffffffffffffffffffffffffffffffffffff169050816000806101000a81548173ffffffffffffffffffffffffffffffffffffffff021916908373ffffffffffffffffffffffffffffffffffffffff1602179055508173ffffffffffffffffffffffffffffffffffffffff168173ffffffffffffffffffffffffffffffffffffffff167f8be0079c531659141344cd1fd0a4f28419497f9722a3daafe3b4186f6b6457e060405160405180910390a35050565b6104b98383836040516024016104379392919061061b565b6040516020818303038152906040527f969cdd03000000000000000000000000000000000000000000000000000000007bffffffffffffffffffffffffffffffffffffffffffffffffffffffff19166020820180517bffffffffffffffffffffffffffffffffffffffffffffffffffffffff83818316178352505050506104be565b505050565b60008151905060006a636f6e736f6c652e6c6f679050602083016000808483855afa5050505050565b6000813590506104f6816107ad565b92915050565b60008135905061050b816107c4565b92915050565b60006020828403121561052357600080fd5b6000610531848285016104e7565b91505092915050565b60006020828403121561054c57600080fd5b600061055a848285016104fc565b91505092915050565b61056c816106b5565b82525050565b600061057d82610699565b61058781856106a4565b93506105978185602086016106f1565b6105a081610724565b840191505092915050565b60006105b86026836106a4565b91506105c382610735565b604082019050919050565b60006105db6020836106a4565b91506105e682610784565b602082019050919050565b6105fa816106e7565b82525050565b60006020820190506106156000830184610563565b92915050565b600060608201905081810360008301526106358186610572565b905061064460208301856105f1565b61065160408301846105f1565b949350505050565b60006020820190508181036000830152610672816105ab565b9050919050565b60006020820190508181036000830152610692816105ce565b9050919050565b600081519050919050565b600082825260208201905092915050565b60006106c0826106c7565b9050919050565b600073ffffffffffffffffffffffffffffffffffffffff82169050919050565b6000819050919050565b60005b8381101561070f5780820151818401526020810190506106f4565b8381111561071e576000848401525b50505050565b6000601f19601f8301169050919050565b7f4f776e61626c653a206e6577206f776e657220697320746865207a65726f206160008201527f6464726573730000000000000000000000000000000000000000000000000000602082015250565b7f4f776e61626c653a2063616c6c6572206973206e6f7420746865206f776e6572600082015250565b6107b6816106b5565b81146107c157600080fd5b50565b6107cd816106e7565b81146107d857600080fd5b5056fe4368616e67696e67206d696e742070726963652066726f6d202725732720746f2027257327a2646970667358221220ae3fe5acd36b4320f58fc83eed958d9a5cff247f75e806f8a0aea3ad3e9e6cb664736f6c63430008040033",
  "linkReferences": {},
  "deployedLinkReferences": {}
}